{
    "_format": "hh-sol-artifact-1",
    "contractName": "MetaPortalVisors",
    "sourceName": "contracts/MetaPortalVisors.sol",
    "abi": [
        {
            "inputs": [],
            "stateMutability": "nonpayable",
            "type": "constructor"
        },
        {
            "anonymous": false,
            "inputs": [
                {
                    "indexed": true,
                    "internalType": "address",
                    "name": "account",
                    "type": "address"
                },
                {
                    "indexed": true,
                    "internalType": "address",
                    "name": "operator",
                    "type": "address"
                },
                {
                    "indexed": false,
                    "internalType": "bool",
                    "name": "approved",
                    "type": "bool"
                }
            ],
            "name": "ApprovalForAll",
            "type": "event"
        },
        {
            "anonymous": false,
            "inputs": [
                {
                    "indexed": true,
                    "internalType": "address",
                    "name": "previousOwner",
                    "type": "address"
                },
                {
                    "indexed": true,
                    "internalType": "address",
                    "name": "newOwner",
                    "type": "address"
                }
            ],
            "name": "OwnershipTransferred",
            "type": "event"
        },
        {
            "anonymous": false,
            "inputs": [
                {
                    "indexed": true,
                    "internalType": "address",
                    "name": "operator",
                    "type": "address"
                },
                {
                    "indexed": true,
                    "internalType": "address",
                    "name": "from",
                    "type": "address"
                },
                {
                    "indexed": true,
                    "internalType": "address",
                    "name": "to",
                    "type": "address"
                },
                {
                    "indexed": false,
                    "internalType": "uint256[]",
                    "name": "ids",
                    "type": "uint256[]"
                },
                {
                    "indexed": false,
                    "internalType": "uint256[]",
                    "name": "values",
                    "type": "uint256[]"
                }
            ],
            "name": "TransferBatch",
            "type": "event"
        },
        {
            "anonymous": false,
            "inputs": [
                {
                    "indexed": true,
                    "internalType": "address",
                    "name": "operator",
                    "type": "address"
                },
                {
                    "indexed": true,
                    "internalType": "address",
                    "name": "from",
                    "type": "address"
                },
                {
                    "indexed": true,
                    "internalType": "address",
                    "name": "to",
                    "type": "address"
                },
                {
                    "indexed": false,
                    "internalType": "uint256",
                    "name": "id",
                    "type": "uint256"
                },
                {
                    "indexed": false,
                    "internalType": "uint256",
                    "name": "value",
                    "type": "uint256"
                }
            ],
            "name": "TransferSingle",
            "type": "event"
        },
        {
            "anonymous": false,
            "inputs": [
                {
                    "indexed": false,
                    "internalType": "string",
                    "name": "value",
                    "type": "string"
                },
                {
                    "indexed": true,
                    "internalType": "uint256",
                    "name": "id",
                    "type": "uint256"
                }
            ],
            "name": "URI",
            "type": "event"
        },
        {
            "inputs": [],
            "name": "MINT_PRICE",
            "outputs": [
                {
                    "internalType": "uint256",
                    "name": "",
                    "type": "uint256"
                }
            ],
            "stateMutability": "view",
            "type": "function"
        },
        {
            "inputs": [
                {
                    "internalType": "address",
                    "name": "account",
                    "type": "address"
                },
                {
                    "internalType": "uint256",
                    "name": "id",
                    "type": "uint256"
                }
            ],
            "name": "balanceOf",
            "outputs": [
                {
                    "internalType": "uint256",
                    "name": "",
                    "type": "uint256"
                }
            ],
            "stateMutability": "view",
            "type": "function"
        },
        {
            "inputs": [
                {
                    "internalType": "address[]",
                    "name": "accounts",
                    "type": "address[]"
                },
                {
                    "internalType": "uint256[]",
                    "name": "ids",
                    "type": "uint256[]"
                }
            ],
            "name": "balanceOfBatch",
            "outputs": [
                {
                    "internalType": "uint256[]",
                    "name": "",
                    "type": "uint256[]"
                }
            ],
            "stateMutability": "view",
            "type": "function"
        },
        {
            "inputs": [
                {
                    "internalType": "uint256",
                    "name": "visorId",
                    "type": "uint256"
                }
            ],
            "name": "getDefaultVisorColor",
            "outputs": [
                {
                    "internalType": "string",
                    "name": "",
                    "type": "string"
                }
            ],
            "stateMutability": "view",
            "type": "function"
        },
        {
            "inputs": [
                {
                    "internalType": "address",
                    "name": "account",
                    "type": "address"
                },
                {
                    "internalType": "address",
                    "name": "operator",
                    "type": "address"
                }
            ],
            "name": "isApprovedForAll",
            "outputs": [
                {
                    "internalType": "bool",
                    "name": "",
                    "type": "bool"
                }
            ],
            "stateMutability": "view",
            "type": "function"
        },
        {
            "inputs": [],
            "name": "owner",
            "outputs": [
                {
                    "internalType": "address",
                    "name": "",
                    "type": "address"
                }
            ],
            "stateMutability": "view",
            "type": "function"
        },
        {
            "inputs": [],
            "name": "renounceOwnership",
            "outputs": [],
            "stateMutability": "nonpayable",
            "type": "function"
        },
        {
            "inputs": [
                {
                    "internalType": "uint256",
                    "name": "visorId",
                    "type": "uint256"
                }
            ],
            "name": "requestMint",
            "outputs": [],
            "stateMutability": "payable",
            "type": "function"
        },
        {
            "inputs": [
                {
                    "internalType": "address",
                    "name": "from",
                    "type": "address"
                },
                {
                    "internalType": "address",
                    "name": "to",
                    "type": "address"
                },
                {
                    "internalType": "uint256[]",
                    "name": "ids",
                    "type": "uint256[]"
                },
                {
                    "internalType": "uint256[]",
                    "name": "amounts",
                    "type": "uint256[]"
                },
                {
                    "internalType": "bytes",
                    "name": "data",
                    "type": "bytes"
                }
            ],
            "name": "safeBatchTransferFrom",
            "outputs": [],
            "stateMutability": "nonpayable",
            "type": "function"
        },
        {
            "inputs": [
                {
                    "internalType": "address",
                    "name": "from",
                    "type": "address"
                },
                {
                    "internalType": "address",
                    "name": "to",
                    "type": "address"
                },
                {
                    "internalType": "uint256",
                    "name": "id",
                    "type": "uint256"
                },
                {
                    "internalType": "uint256",
                    "name": "amount",
                    "type": "uint256"
                },
                {
                    "internalType": "bytes",
                    "name": "data",
                    "type": "bytes"
                }
            ],
            "name": "safeTransferFrom",
            "outputs": [],
            "stateMutability": "nonpayable",
            "type": "function"
        },
        {
            "inputs": [
                {
                    "internalType": "address",
                    "name": "operator",
                    "type": "address"
                },
                {
                    "internalType": "bool",
                    "name": "approved",
                    "type": "bool"
                }
            ],
            "name": "setApprovalForAll",
            "outputs": [],
            "stateMutability": "nonpayable",
            "type": "function"
        },
        {
            "inputs": [
                {
                    "internalType": "bytes4",
                    "name": "interfaceId",
                    "type": "bytes4"
                }
            ],
            "name": "supportsInterface",
            "outputs": [
                {
                    "internalType": "bool",
                    "name": "",
                    "type": "bool"
                }
            ],
            "stateMutability": "view",
            "type": "function"
        },
        {
            "inputs": [
                {
                    "internalType": "address",
                    "name": "newOwner",
                    "type": "address"
                }
            ],
            "name": "transferOwnership",
            "outputs": [],
            "stateMutability": "nonpayable",
            "type": "function"
        },
        {
            "inputs": [
                {
                    "internalType": "uint256",
                    "name": "",
                    "type": "uint256"
                }
            ],
            "name": "uri",
            "outputs": [
                {
                    "internalType": "string",
                    "name": "",
                    "type": "string"
                }
            ],
            "stateMutability": "view",
            "type": "function"
        }
    ],
    "bytecode": "0x60056101c081815264626c61636b60d81b6101e052608090815261020082815264776869746560d81b6102205260a0526004610240818152636772657960e01b6102605260c0526102808381526433b932b2b760d91b6102a05260e0526102c081815263626c756560e01b6102e05261010052600861030090815267686f742d70696e6b60c01b6103205261012052600661034081815265707572706c6560d01b61036052610140526103808181526539b4b63b32b960d11b6103a052610160526103c09081526562726f6e7a6560d01b6103e052610180526104406040526104009081526319dbdb1960e21b610420526101a052620001029190600a620001b8565b503480156200011057600080fd5b50604080516020810190915260008152620001346200012e6200014b565b6200014f565b6200013f816200019f565b50600160045562000361565b3390565b600080546001600160a01b038381166001600160a01b0319831681178455604051919092169283917f8be0079c531659141344cd1fd0a4f28419497f9722a3daafe3b4186f6b6457e09190a35050565b8051620001b49060039060208401906200021c565b5050565b8280548282559060005260206000209081019282156200020a579160200282015b828111156200020a5782518051620001f99184916020909101906200021c565b5091602001919060010190620001d9565b5062000218929150620002a7565b5090565b8280546200022a9062000324565b90600052602060002090601f0160209004810192826200024e576000855562000299565b82601f106200026957805160ff191683800117855562000299565b8280016001018555821562000299579182015b82811115620002995782518255916020019190600101906200027c565b5062000218929150620002c8565b8082111562000218576000620002be8282620002df565b50600101620002a7565b5b80821115620002185760008155600101620002c9565b508054620002ed9062000324565b6000825580601f1062000301575062000321565b601f016020900490600052602060002090810190620003219190620002c8565b50565b6002810460018216806200033957607f821691505b602082108114156200035b57634e487b7160e01b600052602260045260246000fd5b50919050565b611abb80620003716000396000f3fe6080604052600436106100dc5760003560e01c8063715018a61161007f578063c002d23d11610059578063c002d23d1461024a578063e985e9c51461025f578063f242432a1461027f578063f2fde38b1461029f576100dc565b8063715018a6146101f35780638da5cb5b14610208578063a22cb4651461022a576100dc565b80631eb554b6116100bb5780631eb554b6146101715780632eb2c2d61461019157806349733d04146101b35780634e1273f4146101c6576100dc565b8062fdd58e146100e157806301ffc9a7146101175780630e89341c14610144575b600080fd5b3480156100ed57600080fd5b506101016100fc3660046111b3565b6102bf565b60405161010e91906118c5565b60405180910390f35b34801561012357600080fd5b5061013761013236600461129a565b610318565b60405161010e9190611467565b34801561015057600080fd5b5061016461015f3660046112d2565b610360565b60405161010e9190611472565b34801561017d57600080fd5b5061016461018c3660046112d2565b6103f4565b34801561019d57600080fd5b506101b16101ac366004611070565b61044d565b005b6101b16101c13660046112d2565b6104ab565b3480156101d257600080fd5b506101e66101e13660046111dc565b61053e565b60405161010e9190611426565b3480156101ff57600080fd5b506101b161065e565b34801561021457600080fd5b5061021d6106a9565b60405161010e919061136f565b34801561023657600080fd5b506101b1610245366004611179565b6106b9565b34801561025657600080fd5b50610101610787565b34801561026b57600080fd5b5061013761027a36600461103e565b610791565b34801561028b57600080fd5b506101b161029a366004611116565b6107bf565b3480156102ab57600080fd5b506101b16102ba36600461101d565b610816565b60006001600160a01b0383166102f05760405162461bcd60e51b81526004016102e790611521565b60405180910390fd5b5060009081526001602090815260408083206001600160a01b03949094168352929052205490565b60006001600160e01b03198216636cdb3d1360e11b148061034957506001600160e01b031982166303a24d0760e21b145b80610358575061035882610887565b90505b919050565b60606003805461036f90611942565b80601f016020809104026020016040519081016040528092919081815260200182805461039b90611942565b80156103e85780601f106103bd576101008083540402835291602001916103e8565b820191906000526020600020905b8154815290600101906020018083116103cb57829003601f168201915b50505050509050919050565b606060098211156104175760405162461bcd60e51b81526004016102e79061156c565b6005828154811061043857634e487b7160e01b600052603260045260246000fd5b90600052602060002001805461036f90611942565b6104556108a0565b6001600160a01b0316856001600160a01b0316148061047b575061047b8561027a6108a0565b6104975760405162461bcd60e51b81526004016102e79061166b565b6104a485858585856108a4565b5050505050565b600260045414156104ce5760405162461bcd60e51b81526004016102e79061188e565b600260045560098111156104f45760405162461bcd60e51b81526004016102e79061156c565b34655af3107a4000111561051a5760405162461bcd60e51b81526004016102e790611707565b6105363382600160405180602001604052806000815250610a78565b506001600455565b606081518351146105615760405162461bcd60e51b81526004016102e7906117bc565b6000835167ffffffffffffffff81111561058b57634e487b7160e01b600052604160045260246000fd5b6040519080825280602002602001820160405280156105b4578160200160208202803683370190505b50905060005b84518110156106565761061b8582815181106105e657634e487b7160e01b600052603260045260246000fd5b602002602001015185838151811061060e57634e487b7160e01b600052603260045260246000fd5b60200260200101516102bf565b82828151811061063b57634e487b7160e01b600052603260045260246000fd5b602090810291909101015261064f8161197d565b90506105ba565b509392505050565b6106666108a0565b6001600160a01b03166106776106a9565b6001600160a01b03161461069d5760405162461bcd60e51b81526004016102e79061173e565b6106a76000610b69565b565b6000546001600160a01b03165b90565b816001600160a01b03166106cb6108a0565b6001600160a01b031614156106f25760405162461bcd60e51b81526004016102e790611773565b80600260006106ff6108a0565b6001600160a01b03908116825260208083019390935260409182016000908120918716808252919093529120805460ff1916921515929092179091556107436108a0565b6001600160a01b03167f17307eab39ab6107e8899845ad3d59bd9653f200f220920489ca2b5937696c318360405161077b9190611467565b60405180910390a35050565b655af3107a400081565b6001600160a01b03918216600090815260026020908152604080832093909416825291909152205460ff1690565b6107c76108a0565b6001600160a01b0316856001600160a01b031614806107ed57506107ed8561027a6108a0565b6108095760405162461bcd60e51b81526004016102e7906115dd565b6104a48585858585610bb9565b61081e6108a0565b6001600160a01b031661082f6106a9565b6001600160a01b0316146108555760405162461bcd60e51b81526004016102e79061173e565b6001600160a01b03811661087b5760405162461bcd60e51b81526004016102e790611597565b61088481610b69565b50565b6001600160e01b031981166301ffc9a760e01b14919050565b3390565b81518351146108c55760405162461bcd60e51b81526004016102e790611805565b6001600160a01b0384166108eb5760405162461bcd60e51b81526004016102e790611626565b60006108f56108a0565b9050610905818787878787610a70565b60005b8451811015610a0a57600085828151811061093357634e487b7160e01b600052603260045260246000fd5b60200260200101519050600085838151811061095f57634e487b7160e01b600052603260045260246000fd5b60209081029190910181015160008481526001835260408082206001600160a01b038e1683529093529190912054909150818110156109b05760405162461bcd60e51b81526004016102e7906116bd565b60008381526001602090815260408083206001600160a01b038e8116855292528083208585039055908b168252812080548492906109ef90849061192a565b9250508190555050505080610a039061197d565b9050610908565b50846001600160a01b0316866001600160a01b0316826001600160a01b03167f4a39dc06d4c0dbc64b70af90fd698a233a518aa5d07e595d983b8c0526c8f7fb8787604051610a5a929190611439565b60405180910390a4610a70818787878787610cf1565b505050505050565b6001600160a01b038416610a9e5760405162461bcd60e51b81526004016102e79061184d565b6000610aa86108a0565b9050610ac981600087610aba88610dff565b610ac388610dff565b87610a70565b60008481526001602090815260408083206001600160a01b038916845290915281208054859290610afb90849061192a565b92505081905550846001600160a01b031660006001600160a01b0316826001600160a01b03167fc3d58168c5ae7397731d063d5bbf3d657854427343f4c083240f7aacaa2d0f628787604051610b529291906118ce565b60405180910390a46104a481600087878787610e58565b600080546001600160a01b038381166001600160a01b0319831681178455604051919092169283917f8be0079c531659141344cd1fd0a4f28419497f9722a3daafe3b4186f6b6457e09190a35050565b6001600160a01b038416610bdf5760405162461bcd60e51b81526004016102e790611626565b6000610be96108a0565b9050610bfa818787610aba88610dff565b60008481526001602090815260408083206001600160a01b038a16845290915290205483811015610c3d5760405162461bcd60e51b81526004016102e7906116bd565b60008581526001602090815260408083206001600160a01b038b8116855292528083208785039055908816825281208054869290610c7c90849061192a565b92505081905550856001600160a01b0316876001600160a01b0316836001600160a01b03167fc3d58168c5ae7397731d063d5bbf3d657854427343f4c083240f7aacaa2d0f628888604051610cd29291906118ce565b60405180910390a4610ce8828888888888610e58565b50505050505050565b610d03846001600160a01b0316610f29565b15610a705760405163bc197c8160e01b81526001600160a01b0385169063bc197c8190610d3c9089908990889088908890600401611383565b602060405180830381600087803b158015610d5657600080fd5b505af1925050508015610d86575060408051601f3d908101601f19168201909252610d83918101906112b6565b60015b610dcf57610d926119ca565b80610d9d5750610db7565b8060405162461bcd60e51b81526004016102e79190611472565b60405162461bcd60e51b81526004016102e790611485565b6001600160e01b0319811663bc197c8160e01b14610ce85760405162461bcd60e51b81526004016102e7906114d9565b60408051600180825281830190925260609160009190602080830190803683370190505090508281600081518110610e4757634e487b7160e01b600052603260045260246000fd5b602090810291909101015292915050565b610e6a846001600160a01b0316610f29565b15610a705760405163f23a6e6160e01b81526001600160a01b0385169063f23a6e6190610ea390899089908890889088906004016113e1565b602060405180830381600087803b158015610ebd57600080fd5b505af1925050508015610eed575060408051601f3d908101601f19168201909252610eea918101906112b6565b60015b610ef957610d926119ca565b6001600160e01b0319811663f23a6e6160e01b14610ce85760405162461bcd60e51b81526004016102e7906114d9565b3b151590565b80356001600160a01b038116811461035b57600080fd5b600082601f830112610f56578081fd5b81356020610f6b610f6683611906565b6118dc565b8281528181019085830183850287018401881015610f87578586fd5b855b85811015610fa557813584529284019290840190600101610f89565b5090979650505050505050565b600082601f830112610fc2578081fd5b813567ffffffffffffffff811115610fdc57610fdc6119ae565b610fef601f8201601f19166020016118dc565b818152846020838601011115611003578283fd5b816020850160208301379081016020019190915292915050565b60006020828403121561102e578081fd5b61103782610f2f565b9392505050565b60008060408385031215611050578081fd5b61105983610f2f565b915061106760208401610f2f565b90509250929050565b600080600080600060a08688031215611087578081fd5b61109086610f2f565b945061109e60208701610f2f565b9350604086013567ffffffffffffffff808211156110ba578283fd5b6110c689838a01610f46565b945060608801359150808211156110db578283fd5b6110e789838a01610f46565b935060808801359150808211156110fc578283fd5b5061110988828901610fb2565b9150509295509295909350565b600080600080600060a0868803121561112d578081fd5b61113686610f2f565b945061114460208701610f2f565b93506040860135925060608601359150608086013567ffffffffffffffff81111561116d578182fd5b61110988828901610fb2565b6000806040838503121561118b578182fd5b61119483610f2f565b9150602083013580151581146111a8578182fd5b809150509250929050565b600080604083850312156111c5578182fd5b6111ce83610f2f565b946020939093013593505050565b600080604083850312156111ee578182fd5b823567ffffffffffffffff80821115611205578384fd5b818501915085601f830112611218578384fd5b81356020611228610f6683611906565b82815281810190858301838502870184018b1015611244578889fd5b8896505b8487101561126d5761125981610f2f565b835260019690960195918301918301611248565b5096505086013592505080821115611283578283fd5b5061129085828601610f46565b9150509250929050565b6000602082840312156112ab578081fd5b813561103781611a6f565b6000602082840312156112c7578081fd5b815161103781611a6f565b6000602082840312156112e3578081fd5b5035919050565b6000815180845260208085019450808401835b83811015611319578151875295820195908201906001016112fd565b509495945050505050565b60008151808452815b818110156113495760208185018101518683018201520161132d565b8181111561135a5782602083870101525b50601f01601f19169290920160200192915050565b6001600160a01b0391909116815260200190565b6001600160a01b0386811682528516602082015260a0604082018190526000906113af908301866112ea565b82810360608401526113c181866112ea565b905082810360808401526113d58185611324565b98975050505050505050565b6001600160a01b03868116825285166020820152604081018490526060810183905260a06080820181905260009061141b90830184611324565b979650505050505050565b60006020825261103760208301846112ea565b60006040825261144c60408301856112ea565b828103602084015261145e81856112ea565b95945050505050565b901515815260200190565b6000602082526110376020830184611324565b60208082526034908201527f455243313135353a207472616e7366657220746f206e6f6e20455243313135356040820152732932b1b2b4bb32b91034b6b83632b6b2b73a32b960611b606082015260800190565b60208082526028908201527f455243313135353a204552433131353552656365697665722072656a656374656040820152676420746f6b656e7360c01b606082015260800190565b6020808252602b908201527f455243313135353a2062616c616e636520717565727920666f7220746865207a60408201526a65726f206164647265737360a81b606082015260800190565b60208082526011908201527024b73b30b634b2102b34b9b7b91034b21760791b604082015260600190565b60208082526026908201527f4f776e61626c653a206e6577206f776e657220697320746865207a65726f206160408201526564647265737360d01b606082015260800190565b60208082526029908201527f455243313135353a2063616c6c6572206973206e6f74206f776e6572206e6f7260408201526808185c1c1c9bdd995960ba1b606082015260800190565b60208082526025908201527f455243313135353a207472616e7366657220746f20746865207a65726f206164604082015264647265737360d81b606082015260800190565b60208082526032908201527f455243313135353a207472616e736665722063616c6c6572206973206e6f74206040820152711bdddb995c881b9bdc88185c1c1c9bdd995960721b606082015260800190565b6020808252602a908201527f455243313135353a20696e73756666696369656e742062616c616e636520666f60408201526939103a3930b739b332b960b11b606082015260800190565b60208082526017908201527f4d7573742073656e6420302e303030312065746865722e000000000000000000604082015260600190565b6020808252818101527f4f776e61626c653a2063616c6c6572206973206e6f7420746865206f776e6572604082015260600190565b60208082526029908201527f455243313135353a2073657474696e6720617070726f76616c20737461747573604082015268103337b91039b2b63360b91b606082015260800190565b60208082526029908201527f455243313135353a206163636f756e747320616e6420696473206c656e677468604082015268040dad2e6dac2e8c6d60bb1b606082015260800190565b60208082526028908201527f455243313135353a2069647320616e6420616d6f756e7473206c656e677468206040820152670dad2e6dac2e8c6d60c31b606082015260800190565b60208082526021908201527f455243313135353a206d696e7420746f20746865207a65726f206164647265736040820152607360f81b606082015260800190565b6020808252601f908201527f5265656e7472616e637947756172643a207265656e7472616e742063616c6c00604082015260600190565b90815260200190565b918252602082015260400190565b60405181810167ffffffffffffffff811182821017156118fe576118fe6119ae565b604052919050565b600067ffffffffffffffff821115611920576119206119ae565b5060209081020190565b6000821982111561193d5761193d611998565b500190565b60028104600182168061195657607f821691505b6020821081141561197757634e487b7160e01b600052602260045260246000fd5b50919050565b600060001982141561199157611991611998565b5060010190565b634e487b7160e01b600052601160045260246000fd5b634e487b7160e01b600052604160045260246000fd5b60e01c90565b600060443d10156119da576106b6565b600481823e6308c379a06119ee82516119c4565b146119f8576106b6565b6040513d600319016004823e80513d67ffffffffffffffff8160248401118184111715611a2857505050506106b6565b82840192508251915080821115611a4257505050506106b6565b503d83016020828401011115611a5a575050506106b6565b601f01601f1916810160200160405291505090565b6001600160e01b03198116811461088457600080fdfea2646970667358221220b081b3d4a33ebb8e3a1be5e5d94804c879f37406ce6cb747282e3cc23340ee0d64736f6c63430008000033",
    "linkReferences": {},
    "deployedLinkReferences": {}
}